:100000000C9424010C9445010C9445010C94450179
:100010000C9445010C9445010C9445010C94450148
:100020000C9445010C9445010C9445010C94450138
:100030000C9445010C9445010C9445010C94450128
:100040000C9445010C9445010C9445010C94450118
:100050000C9445010C9445010C9445010C94370215
:100060000C9445010C9445010C9445010C944501F8
:100070000C9445010C9445010C9445010C944501E8
:100080000C9445010C9445010C9445010C944501D8
:100090000C9445010C9445010C9445010C944501C8
:1000A0000C9445010C9445010C9445010C944501B8
:1000B0000C9445010C9445010C9445010C944501A8
:1000C0000C9445010C9445010C9445010C94450198
:1000D0000C9445010C9445010C9445010C94450188
:1000E0000C9445010C947A010C94A5010C948001A8
:1000F0000C946F010C94A0010C94AA010C948E0135
:100100000C94A6010C9498010C9465010C949C012C
:100110000C9473010C9484010C946B010C948A016F
:100120000C9477010C94920100002000230026001B
:1001300029002C002F0032000001000003010601FD
:10014000090100002100240027002A002D003000B2
:10015000330001010000040107010A010000220030
:10016000250028002B002E00310034000201000081
:10017000050108010B010505050507050808080824
:10018000020202020A0A080804040404010101012F
:10019000010101010303030303030303040707072A
:1001A0000C0C0C0C0C0C0C0C0202020206060606CF
:1001B000060606060B0B0B0B0B0B0B0B010210209C
:1001C000200808102040102040800201020108048D
:1001D0000201010204081020408080402010080421
:1001E000020180040201804020100804020108047A
:1001F00002010102040810204080010204081020BE
:10020000408000000A0B02090C0D0E0807030401D0
:1002100000000000000000000000000000000000DE
:1002200000000000000000000000000000001211AB
:1002300010000000000000000000000000000000AE
:10024000000000000000000011241FBECFEFD1E22B
:10025000DEBFCDBF00E00CBF12E0A0E0B2E0E8E1FD
:10026000F9E000E00BBF02C007900D92A230B10789
:10027000D9F722E0A2E0B2E001C01D92A232B2079B
:10028000E1F70E9481020C948A040C9400008150D2
:10029000823108F05AC0E82FF0E08827ED5AFE4F6F
:1002A0008F4F0C9482047301770165016B016F011C
:1002B000A5017A01800184018A018E0192019801D1
:1002C0009C01A501A001A601AA01809180008F7761
:1002D000809380000895809180008F7DF9CF809178
:1002E0008000877FF5CF84B58F7784BD089584B56E
:1002F0008F7DFBCF8091B0008F778093B000089501
:100300008091B0008F7DF9CF809190008F7780939E
:1003100090000895809190008F7DF9CF809190009A
:10032000877FF5CF8091A0008F778093A0000895FC
:100330008091A0008F7DF9CF8091A000877FF5CFBD
:10034000809120018F778093200108958091200172
:100350008F7DF9CF80912001877FF5CF1F93CF93B9
:10036000DF93282F30E0F901EE5FFD4F8491F90112
:10037000E454FE4FD491F901EA58FE4FC491CC23C6
:10038000A9F0162F81110E944701EC2FF0E0EE0F2B
:10039000FF1FE45AFE4FA591B4918FB7F894EC91EA
:1003A000111108C0D095DE23DC938FBFDF91CF9170
:1003B0001F910895DE2BF8CFCF93DF9390E0FC01DF
:1003C000E454FE4F24918A589E4FFC018491882367
:1003D000D1F090E0880F991FFC01EE5BFE4FA591D4
:1003E000B491FC01E45AFE4FC591D49161110EC045
:1003F0009FB7F8948C91E22FE0958E238C932881FF
:10040000E223E8839FBFDF91CF9108958FB7F894DF
:10041000EC91E22BEC938FBFF6CF2FB7F89460915D
:100420001E0270911F0280912002909121022FBF25
:100430000895CF93C82F61E00E94AE0181E08093C0
:100440001102C09300020E940D0260930202709399
:1004500003028093040290930502CF91089560E017
:1004600085E00E94AE0160E086E00C94AE011F9230
:100470000F920FB60F9211242F933F938F939F9358
:10048000AF93BF9380911E0290911F02A091200212
:10049000B091210230911D0223E0230F2D3758F532
:1004A0000196A11DB11D20931D0280931E02909301
:1004B0001F02A0932002B093210280911902909113
:1004C0001A02A0911B02B0911C020196A11DB11D40
:1004D0008093190290931A02A0931B02B0931C02FE
:1004E000BF91AF919F918F913F912F910F900FBE30
:1004F0000F901F90189526E8230F0296A11DB11D9D
:10050000D2CF789484B5826084BD84B5816084BD87
:1005100085B5826085BD85B5816085BD80916E00A1
:10052000816080936E0010928100809181008260D2
:10053000809381008091810081608093810080910F
:1005400080008160809380008091B10084608093FE
:10055000B1008091B00081608093B00080919100E3
:1005600082608093910080919100816080939100DE
:10057000809190008160809390008091A1008260C2
:100580008093A1008091A10081608093A10080915F
:10059000A00081608093A0008091210182608093FF
:1005A00021018091210181608093210180912001AE
:1005B00081608093200180917A00846080937A002A
:1005C00080917A00826080937A0080917A008160C5
:1005D00080937A0080917A00806880937A001092EC
:1005E000C10060E084E00E94DC0161E085E00E94DF
:1005F000DC0161E086E00E94DC0161E087E00E94AE
:10060000DC0161E089E00E94DC0161E08AE00E9497
:10061000DC0161E08BE00E94DC010E942F0260E0BF
:1006200087E00E94AE0160E089E00E94AE0160E0D8
:100630008AE00E94AE0160E08BE00E94AE0196E08D
:10064000492E92E0592E20EC622E21E0722E3AE7DC
:10065000E32E31E0F32E00E010E043E0C42ED12C75
:1006600052E0A52EB12C88248394912C33243A9403
:10067000809111028823E1F00E940D022091020274
:10068000309103024091040250910502621B730BEA
:10069000840B950B623371058105910548F060E08C
:1006A000809100020E94AE0110921102309200026D
:1006B0008091170290911802009709F06CC0F20126
:1006C0008491F301C491F701D491DD2309F460C052
:1006D00081110E944701ED2FF0E0EE0FFF1FE85D52
:1006E000FE4FA591B4918C91C82391E080E009F46C
:1006F00090E0C92FD82FFC2FF1702F2E80910B0284
:10070000F81761F00E940D026093070270930802CF
:100710008093090290930A0220920B020E940D021C
:1007200020910702309108024091090250910A027B
:10073000621B730B840B950B623371058105910568
:1007400000F1809106022816E1F020920602CD2BDE
:10075000C1F01092160261E085E00E94AE0160E0F7
:1007600086E00E94AE010E940D0260931202709317
:1007700013028093140290931502909218028092B3
:1007800017020115110509F473CF0E9400006ECF06
:10079000D0E0C0E0B0CF8130910509F044C0809135
:1007A00011028111EECF0E940D02209112023091B0
:1007B00013024091140250911502621B730B840BBB
:1007C000950B683E734081059105D8F20E940D0299
:1007D0006093120270931302809314029093150297
:1007E00087E00E941902809116028F5F80931602A3
:1007F000803138F2B0921802A09217020E942F02A4
:100800000E940D0260930D0270930E0280930F02FE
:100810009093100261E08AE00E94AE0161E08BE0FB
:100820000E94AE01AECF82309105A9F50E940D0263
:1008300020910D0230910E0240910F025091100252
:10084000621B730B840B950B623371058105910557
:1008500008F497CF60E08AE00E94AE0160E08BE090
:100860000E94AE0110920C0260E085E00E94AE0191
:1008700061E086E00E94AE010E940D0260931202C8
:10088000709313028093140290931502D092180271
:10089000C092170276CF039709F073CF80911102AF
:1008A00081116FCF0E940D0220911202309113022C
:1008B0004091140250911502621B730B840B950B2F
:1008C000683E73408105910508F45BCF0E940D02DC
:1008D0006093120270931302809314029093150296
:1008E00089E00E94190280910C028F5F80930C02B4
:1008F0008A3008F446CF0E942F02109218021092FC
:1009000017023FCFEE0FFF1F881F8BBF0790F69196
:08091000E02D1994F894FFCFCB
:02091800FF00DE
:00000001FF
